{
  "transactions": [
    {
      "hash": "0x48261d5cbb49939e034105f79c60c73d8ee8117134ee52cf1f219857cff6e397",
      "transactionType": "CALL",
      "contractName": null,
      "contractAddress": "0x779877a7b0d9e8603169ddbd7836e478b4624789",
      "function": "transferAndCall(address,uint256,bytes)",
      "arguments": [
        "0x9DdfaCa8183c41ad55329BdeeD9F6A8d53168B1B",
        "3000000000000000000",
        "0xcd111183500c8f268b02e7b747b9cfb461ece007d7818ae59c45ef18fb49cd8e"
      ],
      "transaction": {
        "from": "0x0dedd6f2994c6608a7ac846ec6a1b6044777f3d4",
        "to": "0x779877a7b0d9e8603169ddbd7836e478b4624789",
        "gas": "0x1c1ff",
        "value": "0x0",
        "input": "0x4000aea00000000000000000000000009ddfaca8183c41ad55329bdeed9f6a8d53168b1b00000000000000000000000000000000000000000000000029a2241af62c000000000000000000000000000000000000000000000000000000000000000000600000000000000000000000000000000000000000000000000000000000000020cd111183500c8f268b02e7b747b9cfb461ece007d7818ae59c45ef18fb49cd8e",
        "nonce": "0x19",
        "chainId": "0xaa36a7"
      },
      "additionalContracts": [],
      "isFixedGasLimit": false
    }
  ],
  "receipts": [
    {
      "status": "0x1",
      "cumulativeGasUsed": "0xd914a3",
      "logs": [
        {
          "address": "0x779877a7b0d9e8603169ddbd7836e478b4624789",
          "topics": [
            "0xddf252ad1be2c89b69c2b068fc378daa952ba7f163c4a11628f55a4df523b3ef",
            "0x0000000000000000000000000dedd6f2994c6608a7ac846ec6a1b6044777f3d4",
            "0x0000000000000000000000009ddfaca8183c41ad55329bdeed9f6a8d53168b1b"
          ],
          "data": "0x00000000000000000000000000000000000000000000000029a2241af62c0000",
          "blockHash": "0x86229a88b0691d5f56474947d0f22f090df01590caf5b9107d4a864bff749071",
          "blockNumber": "0x760584",
          "transactionHash": "0x48261d5cbb49939e034105f79c60c73d8ee8117134ee52cf1f219857cff6e397",
          "transactionIndex": "0x8c",
          "logIndex": "0x90",
          "removed": false
        },
        {
          "address": "0x779877a7b0d9e8603169ddbd7836e478b4624789",
          "topics": [
            "0xe19260aff97b920c7df27010903aeb9c8d2be5d310a2c67824cf3f15396e4c16",
            "0x0000000000000000000000000dedd6f2994c6608a7ac846ec6a1b6044777f3d4",
            "0x0000000000000000000000009ddfaca8183c41ad55329bdeed9f6a8d53168b1b"
          ],
          "data": "0x00000000000000000000000000000000000000000000000029a2241af62c000000000000000000000000000000000000000000000000000000000000000000400000000000000000000000000000000000000000000000000000000000000020cd111183500c8f268b02e7b747b9cfb461ece007d7818ae59c45ef18fb49cd8e",
          "blockHash": "0x86229a88b0691d5f56474947d0f22f090df01590caf5b9107d4a864bff749071",
          "blockNumber": "0x760584",
          "transactionHash": "0x48261d5cbb49939e034105f79c60c73d8ee8117134ee52cf1f219857cff6e397",
          "transactionIndex": "0x8c",
          "logIndex": "0x91",
          "removed": false
        },
        {
          "address": "0x9ddfaca8183c41ad55329bdeed9f6a8d53168b1b",
          "topics": [
            "0x1ced9348ff549fceab2ac57cd3a9de38edaaab274b725ee82c23e8fc8c4eec7a",
            "0xcd111183500c8f268b02e7b747b9cfb461ece007d7818ae59c45ef18fb49cd8e"
          ],
          "data": "0x000000000000000000000000000000000000000000000000000000000000000000000000000000000000000000000000000000000000000029a2241af62c0000",
          "blockHash": "0x86229a88b0691d5f56474947d0f22f090df01590caf5b9107d4a864bff749071",
          "blockNumber": "0x760584",
          "transactionHash": "0x48261d5cbb49939e034105f79c60c73d8ee8117134ee52cf1f219857cff6e397",
          "transactionIndex": "0x8c",
          "logIndex": "0x92",
          "removed": false
        }
      ],
      "logsBloom": "0x00000004000000000000000000000000000000000020000000000000020000000000000000000000000002000000000000000000000000000000000000000000000000000000080000000008000000004000000000000000001020000020000008000000000000000000000000000000000000000000000000000010000040000000000000000000000000010000800000000020000000000000000000000000000000000000080000000000010000000000000000000000000004000000000800000002000000000000000000000000000000000000000100000000000000000010000000000000800000000000000000000000000000000000000000000000",
      "type": "0x2",
      "transactionHash": "0x48261d5cbb49939e034105f79c60c73d8ee8117134ee52cf1f219857cff6e397",
      "transactionIndex": "0x8c",
      "blockHash": "0x86229a88b0691d5f56474947d0f22f090df01590caf5b9107d4a864bff749071",
      "blockNumber": "0x760584",
      "gasUsed": "0x133b1",
      "effectiveGasPrice": "0x155d1772d",
      "from": "0x0dedd6f2994c6608a7ac846ec6a1b6044777f3d4",
      "to": "0x779877a7b0d9e8603169ddbd7836e478b4624789",
      "contractAddress": null
    }
  ],
  "libraries": [],
  "pending": [],
  "returns": {},
  "timestamp": 1739892374,
  "chain": 11155111,
  "commit": "4129e77"
}